{
  "contractName": "Election",
  "abi": [
    {
      "inputs": [],
      "stateMutability": "nonpayable",
      "type": "constructor"
    },
    {
      "anonymous": false,
      "inputs": [
        {
          "indexed": true,
          "internalType": "uint256",
          "name": "_candidateId",
          "type": "uint256"
        }
      ],
      "name": "Voted",
      "type": "event"
    },
    {
      "inputs": [],
      "name": "candidatesCount",
      "outputs": [
        {
          "internalType": "uint256",
          "name": "",
          "type": "uint256"
        }
      ],
      "stateMutability": "view",
      "type": "function",
      "constant": true
    },
    {
      "inputs": [],
      "name": "electionState",
      "outputs": [
        {
          "internalType": "enum Election.State",
          "name": "",
          "type": "uint8"
        }
      ],
      "stateMutability": "view",
      "type": "function",
      "constant": true
    },
    {
      "inputs": [],
      "name": "owner",
      "outputs": [
        {
          "internalType": "address",
          "name": "",
          "type": "address"
        }
      ],
      "stateMutability": "view",
      "type": "function",
      "constant": true
    },
    {
      "inputs": [],
      "name": "votersCount",
      "outputs": [
        {
          "internalType": "uint256",
          "name": "",
          "type": "uint256"
        }
      ],
      "stateMutability": "view",
      "type": "function",
      "constant": true
    },
    {
      "inputs": [],
      "name": "winnerId",
      "outputs": [
        {
          "internalType": "uint256",
          "name": "",
          "type": "uint256"
        }
      ],
      "stateMutability": "view",
      "type": "function",
      "constant": true
    },
    {
      "inputs": [],
      "name": "startElection",
      "outputs": [],
      "stateMutability": "nonpayable",
      "type": "function"
    },
    {
      "inputs": [],
      "name": "endElection",
      "outputs": [],
      "stateMutability": "nonpayable",
      "type": "function"
    },
    {
      "inputs": [
        {
          "internalType": "string",
          "name": "_name",
          "type": "string"
        }
      ],
      "name": "addCandidate",
      "outputs": [],
      "stateMutability": "nonpayable",
      "type": "function"
    },
    {
      "inputs": [
        {
          "internalType": "address",
          "name": "_voter",
          "type": "address"
        }
      ],
      "name": "addVoter",
      "outputs": [],
      "stateMutability": "nonpayable",
      "type": "function"
    },
    {
      "inputs": [
        {
          "internalType": "address",
          "name": "_current",
          "type": "address"
        }
      ],
      "name": "getRole",
      "outputs": [
        {
          "internalType": "uint256",
          "name": "",
          "type": "uint256"
        }
      ],
      "stateMutability": "view",
      "type": "function",
      "constant": true
    },
    {
      "inputs": [
        {
          "internalType": "uint256",
          "name": "_candidateId",
          "type": "uint256"
        }
      ],
      "name": "vote",
      "outputs": [],
      "stateMutability": "nonpayable",
      "type": "function"
    },
    {
      "inputs": [
        {
          "internalType": "uint256",
          "name": "_candidateId",
          "type": "uint256"
        }
      ],
      "name": "getCandidateDetails",
      "outputs": [
        {
          "internalType": "string",
          "name": "",
          "type": "string"
        },
        {
          "internalType": "uint256",
          "name": "",
          "type": "uint256"
        }
      ],
      "stateMutability": "view",
      "type": "function",
      "constant": true
    },
    {
      "inputs": [],
      "name": "getWinner",
      "outputs": [
        {
          "internalType": "uint256",
          "name": "",
          "type": "uint256"
        }
      ],
      "stateMutability": "view",
      "type": "function",
      "constant": true
    }
  ],
  "bytecode": "0x60806040526000600455600060055534801561001a57600080fd5b50336000806101000a81548173ffffffffffffffffffffffffffffffffffffffff021916908373ffffffffffffffffffffffffffffffffffffffff16021790555060008060146101000a81548160ff021916908360028111156100805761007f61008a565b5b02179055506100b9565b7f4e487b7100000000000000000000000000000000000000000000000000000000600052602160045260246000fd5b611721806100c86000396000f3fe608060405234801561001057600080fd5b50600436106100cf5760003560e01c806359f784681161008c5780638e7ea5b2116100665780638e7ea5b2146101db57806391e0d593146101f957806398c0793814610217578063f4ab9adf14610235576100cf565b806359f78468146101a957806362d73eb8146101b35780638da5cb5b146101bd576100cf565b80630121b93f146100d45780632280043d146100f057806327f9fd501461010e5780632d35a8a21461013f578063442767331461015d578063462e91ec1461018d575b600080fd5b6100ee60048036038101906100e99190610dd1565b610251565b005b6100f86104e5565b6040516101059190610e75565b60405180910390f35b61012860048036038101906101239190610dd1565b6104f8565b604051610136929190610f38565b60405180910390f35b61014761060e565b6040516101549190610f68565b60405180910390f35b61017760048036038101906101729190610fe1565b610614565b6040516101849190610f68565b60405180910390f35b6101a760048036038101906101a29190611143565b6106d7565b005b6101b161085d565b005b6101bb610984565b005b6101c5610a49565b6040516101d2919061119b565b60405180910390f35b6101e3610a6d565b6040516101f09190610f68565b60405180910390f35b610201610aec565b60405161020e9190610f68565b60405180910390f35b61021f610af2565b60405161022c9190610f68565b60405180910390f35b61024f600480360381019061024a9190610fe1565b610af8565b005b6001600281111561026557610264610dfe565b5b600060149054906101000a900460ff16600281111561028757610286610dfe565b5b146102c7576040517f08c379a00000000000000000000000000000000000000000000000000000000081526004016102be90611202565b60405180910390fd5b600360003373ffffffffffffffffffffffffffffffffffffffff1673ffffffffffffffffffffffffffffffffffffffff16815260200190815260200160002060009054906101000a900460ff16610353576040517f08c379a000000000000000000000000000000000000000000000000000000000815260040161034a9061126e565b60405180910390fd5b600260003373ffffffffffffffffffffffffffffffffffffffff1673ffffffffffffffffffffffffffffffffffffffff16815260200190815260200160002060009054906101000a900460ff16156103e0576040517f08c379a00000000000000000000000000000000000000000000000000000000081526004016103d7906112da565b60405180910390fd5b600081101580156103f2575060045481105b610431576040517f08c379a000000000000000000000000000000000000000000000000000000000815260040161042890611346565b60405180910390fd5b60016000828152602001908152602001600020600201600081548092919061045890611395565b91905055506001600260003373ffffffffffffffffffffffffffffffffffffffff1673ffffffffffffffffffffffffffffffffffffffff16815260200190815260200160002060006101000a81548160ff021916908315150217905550807f7f511e347bf51eed3be100b3194247d5207f05f3b33de7d31e3e8ee73199a04960405160405180910390a250565b600060149054906101000a900460ff1681565b6060600080831015801561050d575060045483105b61054c576040517f08c379a000000000000000000000000000000000000000000000000000000000815260040161054390611346565b60405180910390fd5b6001600084815260200190815260200160002060010160016000858152602001908152602001600020600201548180546105859061140c565b80601f01602080910402602001604051908101604052809291908181526020018280546105b19061140c565b80156105fe5780601f106105d3576101008083540402835291602001916105fe565b820191906000526020600020905b8154815290600101906020018083116105e157829003601f168201915b5050505050915091509150915091565b60045481565b60008173ffffffffffffffffffffffffffffffffffffffff1660008054906101000a900473ffffffffffffffffffffffffffffffffffffffff1673ffffffffffffffffffffffffffffffffffffffff160361067257600190506106d2565b600360008373ffffffffffffffffffffffffffffffffffffffff1673ffffffffffffffffffffffffffffffffffffffff16815260200190815260200160002060009054906101000a900460ff16156106cd57600290506106d2565b600390505b919050565b3373ffffffffffffffffffffffffffffffffffffffff1660008054906101000a900473ffffffffffffffffffffffffffffffffffffffff1673ffffffffffffffffffffffffffffffffffffffff1614610765576040517f08c379a000000000000000000000000000000000000000000000000000000000815260040161075c90611489565b60405180910390fd5b6000600281111561077957610778610dfe565b5b600060149054906101000a900460ff16600281111561079b5761079a610dfe565b5b146107db576040517f08c379a00000000000000000000000000000000000000000000000000000000081526004016107d2906114f5565b60405180910390fd5b604051806060016040528060045481526020018281526020016000815250600160006004548152602001908152602001600020600082015181600001556020820151816001019080519060200190610834929190610ce4565b50604082015181600201559050506004600081548092919061085590611395565b919050555050565b60008054906101000a900473ffffffffffffffffffffffffffffffffffffffff1673ffffffffffffffffffffffffffffffffffffffff163373ffffffffffffffffffffffffffffffffffffffff16146108b557600080fd5b600160028111156108c9576108c8610dfe565b5b600060149054906101000a900460ff1660028111156108eb576108ea610dfe565b5b146108f557600080fd5b6002600060146101000a81548160ff0219169083600281111561091b5761091a610dfe565b5b02179055506000805b60045481101561098057816001600083815260200190815260200160002060020154111561096d5760016000828152602001908152602001600020600201549150806006819055505b808061097890611395565b915050610924565b5050565b60008054906101000a900473ffffffffffffffffffffffffffffffffffffffff1673ffffffffffffffffffffffffffffffffffffffff163373ffffffffffffffffffffffffffffffffffffffff16146109dc57600080fd5b600060028111156109f0576109ef610dfe565b5b600060149054906101000a900460ff166002811115610a1257610a11610dfe565b5b14610a1c57600080fd5b6001600060146101000a81548160ff02191690836002811115610a4257610a41610dfe565b5b0217905550565b60008054906101000a900473ffffffffffffffffffffffffffffffffffffffff1681565b6000600280811115610a8257610a81610dfe565b5b600060149054906101000a900460ff166002811115610aa457610aa3610dfe565b5b14610ae4576040517f08c379a0000000000000000000000000000000000000000000000000000000008152600401610adb90611561565b60405180910390fd5b600654905090565b60065481565b60055481565b3373ffffffffffffffffffffffffffffffffffffffff1660008054906101000a900473ffffffffffffffffffffffffffffffffffffffff1673ffffffffffffffffffffffffffffffffffffffff1614610b86576040517f08c379a0000000000000000000000000000000000000000000000000000000008152600401610b7d906115cd565b60405180910390fd5b600360008273ffffffffffffffffffffffffffffffffffffffff1673ffffffffffffffffffffffffffffffffffffffff16815260200190815260200160002060009054906101000a900460ff1615610c13576040517f08c379a0000000000000000000000000000000000000000000000000000000008152600401610c0a90611639565b60405180910390fd5b60006002811115610c2757610c26610dfe565b5b600060149054906101000a900460ff166002811115610c4957610c48610dfe565b5b14610c89576040517f08c379a0000000000000000000000000000000000000000000000000000000008152600401610c80906116cb565b60405180910390fd5b6001600360008373ffffffffffffffffffffffffffffffffffffffff1673ffffffffffffffffffffffffffffffffffffffff16815260200190815260200160002060006101000a81548160ff02191690831515021790555050565b828054610cf09061140c565b90600052602060002090601f016020900481019282610d125760008555610d59565b82601f10610d2b57805160ff1916838001178555610d59565b82800160010185558215610d59579182015b82811115610d58578251825591602001919060010190610d3d565b5b509050610d669190610d6a565b5090565b5b80821115610d83576000816000905550600101610d6b565b5090565b6000604051905090565b600080fd5b600080fd5b6000819050919050565b610dae81610d9b565b8114610db957600080fd5b50565b600081359050610dcb81610da5565b92915050565b600060208284031215610de757610de6610d91565b5b6000610df584828501610dbc565b91505092915050565b7f4e487b7100000000000000000000000000000000000000000000000000000000600052602160045260246000fd5b60038110610e3e57610e3d610dfe565b5b50565b6000819050610e4f82610e2d565b919050565b6000610e5f82610e41565b9050919050565b610e6f81610e54565b82525050565b6000602082019050610e8a6000830184610e66565b92915050565b600081519050919050565b600082825260208201905092915050565b60005b83811015610eca578082015181840152602081019050610eaf565b83811115610ed9576000848401525b50505050565b6000601f19601f8301169050919050565b6000610efb82610e90565b610f058185610e9b565b9350610f15818560208601610eac565b610f1e81610edf565b840191505092915050565b610f3281610d9b565b82525050565b60006040820190508181036000830152610f528185610ef0565b9050610f616020830184610f29565b9392505050565b6000602082019050610f7d6000830184610f29565b92915050565b600073ffffffffffffffffffffffffffffffffffffffff82169050919050565b6000610fae82610f83565b9050919050565b610fbe81610fa3565b8114610fc957600080fd5b50565b600081359050610fdb81610fb5565b92915050565b600060208284031215610ff757610ff6610d91565b5b600061100584828501610fcc565b91505092915050565b600080fd5b600080fd5b7f4e487b7100000000000000000000000000000000000000000000000000000000600052604160045260246000fd5b61105082610edf565b810181811067ffffffffffffffff8211171561106f5761106e611018565b5b80604052505050565b6000611082610d87565b905061108e8282611047565b919050565b600067ffffffffffffffff8211156110ae576110ad611018565b5b6110b782610edf565b9050602081019050919050565b82818337600083830152505050565b60006110e66110e184611093565b611078565b90508281526020810184848401111561110257611101611013565b5b61110d8482856110c4565b509392505050565b600082601f83011261112a5761112961100e565b5b813561113a8482602086016110d3565b91505092915050565b60006020828403121561115957611158610d91565b5b600082013567ffffffffffffffff81111561117757611176610d96565b5b61118384828501611115565b91505092915050565b61119581610fa3565b82525050565b60006020820190506111b0600083018461118c565b92915050565b7f456c656374696f6e206973206e6f7420696e2070726f67726573730000000000600082015250565b60006111ec601b83610e9b565b91506111f7826111b6565b602082019050919050565b6000602082019050818103600083015261121b816111df565b9050919050565b7f4e6f6e20617574686f726973656420757365722063616e6e6f7420766f746500600082015250565b6000611258601f83610e9b565b915061126382611222565b602082019050919050565b600060208201905081810360008301526112878161124b565b9050919050565b7f596f75206861766520616c726561647920766f74656400000000000000000000600082015250565b60006112c4601683610e9b565b91506112cf8261128e565b602082019050919050565b600060208201905081810360008301526112f3816112b7565b9050919050565b7f496e76616c69642063616e646964617465204944000000000000000000000000600082015250565b6000611330601483610e9b565b915061133b826112fa565b602082019050919050565b6000602082019050818103600083015261135f81611323565b9050919050565b7f4e487b7100000000000000000000000000000000000000000000000000000000600052601160045260246000fd5b60006113a082610d9b565b91507fffffffffffffffffffffffffffffffffffffffffffffffffffffffffffffffff82036113d2576113d1611366565b5b600182019050919050565b7f4e487b7100000000000000000000000000000000000000000000000000000000600052602260045260246000fd5b6000600282049050600182168061142457607f821691505b602082108103611437576114366113dd565b5b50919050565b7f4f6e6c79206f776e65722063616e206164642063616e64696461746573000000600082015250565b6000611473601d83610e9b565b915061147e8261143d565b602082019050919050565b600060208201905081810360008301526114a281611466565b9050919050565b7f456c656374696f6e2068617320616c7265616479207374617274656400000000600082015250565b60006114df601c83610e9b565b91506114ea826114a9565b602082019050919050565b6000602082019050818103600083015261150e816114d2565b9050919050565b7f456c656374696f6e20686173206e6f7420656e64656420796574000000000000600082015250565b600061154b601a83610e9b565b915061155682611515565b602082019050919050565b6000602082019050818103600083015261157a8161153e565b9050919050565b7f4f6e6c79206f776e65722063616e2061646420766f7465720000000000000000600082015250565b60006115b7601883610e9b565b91506115c282611581565b602082019050919050565b600060208201905081810360008301526115e6816115aa565b9050919050565b7f566f74657220616c726561647920616464656400000000000000000000000000600082015250565b6000611623601383610e9b565b915061162e826115ed565b602082019050919050565b6000602082019050818103600083015261165281611616565b9050919050565b7f566f7465722063616e277420626520616464656420616674657220656c65637460008201527f696f6e2073746172746564000000000000000000000000000000000000000000602082015250565b60006116b5602b83610e9b565b91506116c082611659565b604082019050919050565b600060208201905081810360008301526116e4816116a8565b905091905056fea2646970667358221220d81f308bb2b8b682820d07aa940496bc9c81a725298a1280b685812a2c3dc8b164736f6c634300080e0033",
  "immutableReferences": {},
  "source": "// SPDX-License-Identifier: MIT\npragma solidity >=0.4.0 <0.9.0;\n\ncontract Election {\n    enum State {\n        NotStarted,\n        InProgress,\n        Ended\n    }\n\n    struct Candidate {\n        uint256 id;\n        string name;\n        uint256 voteCount;\n    }\n\n    address public owner;\n    State public electionState;\n\n    struct Voter {\n        uint256 id;\n        string name;\n    }\n\n    mapping(uint256 => Candidate) candidates;\n    mapping(address => bool) voted;\n    mapping(address => bool) isVoter;\n\n    uint256 public candidatesCount = 0;\n    uint256 public votersCount = 0;\n    uint256 public winnerId; // Store the winner's ID\n\n\n    constructor() {\n        owner = msg.sender;\n        electionState = State.NotStarted;\n    }\n\n    event Voted(uint256 indexed _candidateId);\n\n    function startElection() public {\n        require(msg.sender == owner);\n        require(electionState == State.NotStarted);\n        electionState = State.InProgress;\n    }\n\n    function endElection() public {\n        require(msg.sender == owner);\n        require(electionState == State.InProgress);\n        electionState = State.Ended;\n        // Find the winner when the election ends\n        uint256 maxVotes = 0;\n        for (uint256 i = 0; i < candidatesCount; i++) {\n            if (candidates[i].voteCount > maxVotes) {\n                maxVotes = candidates[i].voteCount;\n                winnerId = i;\n            }\n        }\n    }\n\n    function addCandidate(string memory _name) public {\n        require(owner == msg.sender, \"Only owner can add candidates\");\n        require(\n            electionState == State.NotStarted,\n            \"Election has already started\"\n        );\n\n        candidates[candidatesCount] = Candidate(candidatesCount, _name, 0);\n        candidatesCount++;\n    }\n\n    function addVoter(address _voter) public {\n        require(owner == msg.sender, \"Only owner can add voter\");\n        require(!isVoter[_voter], \"Voter already added\");\n        require(\n            electionState == State.NotStarted,\n            \"Voter can't be added after election started\"\n        );\n\n        isVoter[_voter] = true;\n    }\n\n    function getRole(address _current) public view returns (uint256) {\n        if (owner == _current) {\n            return 1;\n        } else if (isVoter[_current]) {\n            return 2;\n        } else {\n            return 3;\n        }\n    }\n\n    function vote(uint256 _candidateId) public {\n        require(\n            electionState == State.InProgress,\n            \"Election is not in progress\"\n        );\n        require(isVoter[msg.sender], \"Non authorised user cannot vote\");\n        require(!voted[msg.sender], \"You have already voted\");\n        require(\n            _candidateId >= 0 && _candidateId < candidatesCount,\n            \"Invalid candidate ID\"\n        );\n\n        candidates[_candidateId].voteCount++;\n        voted[msg.sender] = true;\n\n        emit Voted(_candidateId);\n    }\n\n    function getCandidateDetails(uint256 _candidateId)\n        public\n        view\n        returns (string memory, uint256)\n    {\n        require(\n            _candidateId >= 0 && _candidateId < candidatesCount,\n            \"Invalid candidate ID\"\n        );\n        return (\n            candidates[_candidateId].name,\n            candidates[_candidateId].voteCount\n        );\n    }\n    // Function to get the ID of the winner\n    function getWinner() public view returns (uint256) {\n        require(electionState == State.Ended, \"Election has not ended yet\");\n        return winnerId;\n    }\n    \n}\n",
  "sourcePath": "/Users/appleone/Documents/Distributed_System_project_Election/contracts/Election.sol",
  "compiler": {
    "name": "solc",
    "version": "0.8.14+commit.80d49f37.Emscripten.clang"
  },
  "schemaVersion": "3.4.16",
  "updatedAt": "2024-03-17T20:28:39.743Z",
  "networkType": "ethereum",
  "devdoc": {
    "kind": "dev",
    "methods": {},
    "version": 1
  },
  "userdoc": {
    "kind": "user",
    "methods": {},
    "version": 1
  }
}